{"contracts/MockFHE.sol":{"MockFHE":{"abi":[{"inputs":[{"internalType":"bytes32[]","name":"","type":"bytes32[]"},{"internalType":"bytes","name":"","type":"bytes"},{"internalType":"bytes","name":"","type":"bytes"}],"name":"checkSignatures","outputs":[],"stateMutability":"pure","type":"function"}],"evm":{"bytecode":{"linkReferences":{},"object":"608060405234801561001057600080fd5b50610203806100206000396000f3fe608060405234801561001057600080fd5b506004361061002b5760003560e01c8063d69c71e614610030575b600080fd5b61004a60048036038101906100459190610119565b61004c565b005b505050505050565b600080fd5b600080fd5b600080fd5b600080fd5b600080fd5b60008083601f8401126100835761008261005e565b5b8235905067ffffffffffffffff8111156100a05761009f610063565b5b6020830191508360208202830111156100bc576100bb610068565b5b9250929050565b60008083601f8401126100d9576100d861005e565b5b8235905067ffffffffffffffff8111156100f6576100f5610063565b5b60208301915083600182028301111561011257610111610068565b5b9250929050565b6000806000806000806060878903121561013657610135610054565b5b600087013567ffffffffffffffff81111561015457610153610059565b5b61016089828a0161006d565b9650965050602087013567ffffffffffffffff81111561018357610182610059565b5b61018f89828a016100c3565b9450945050604087013567ffffffffffffffff8111156101b2576101b1610059565b5b6101be89828a016100c3565b9250925050929550929550929556fea26469706673582212206a2d291180d4c873648304eb2be00bd514b4b4f8b1c1ba08dafad5e5e0492c2764736f6c63430008180033","opcodes":"PUSH1 0x80 PUSH1 0x40 MSTORE CALLVALUE DUP1 ISZERO PUSH2 0x10 JUMPI PUSH1 0x0 DUP1 REVERT JUMPDEST POP PUSH2 0x203 DUP1 PUSH2 0x20 PUSH1 0x0 CODECOPY PUSH1 0x0 RETURN INVALID PUSH1 0x80 PUSH1 0x40 MSTORE CALLVALUE DUP1 ISZERO PUSH2 0x10 JUMPI PUSH1 0x0 DUP1 REVERT JUMPDEST POP PUSH1 0x4 CALLDATASIZE LT PUSH2 0x2B JUMPI PUSH1 0x0 CALLDATALOAD PUSH1 0xE0 SHR DUP1 PUSH4 0xD69C71E6 EQ PUSH2 0x30 JUMPI JUMPDEST PUSH1 0x0 DUP1 REVERT JUMPDEST PUSH2 0x4A PUSH1 0x4 DUP1 CALLDATASIZE SUB DUP2 ADD SWAP1 PUSH2 0x45 SWAP2 SWAP1 PUSH2 0x119 JUMP JUMPDEST PUSH2 0x4C JUMP JUMPDEST STOP JUMPDEST POP POP POP POP POP POP JUMP JUMPDEST PUSH1 0x0 DUP1 REVERT JUMPDEST PUSH1 0x0 DUP1 REVERT JUMPDEST PUSH1 0x0 DUP1 REVERT JUMPDEST PUSH1 0x0 DUP1 REVERT JUMPDEST PUSH1 0x0 DUP1 REVERT JUMPDEST PUSH1 0x0 DUP1 DUP4 PUSH1 0x1F DUP5 ADD SLT PUSH2 0x83 JUMPI PUSH2 0x82 PUSH2 0x5E JUMP JUMPDEST JUMPDEST DUP3 CALLDATALOAD SWAP1 POP PUSH8 0xFFFFFFFFFFFFFFFF DUP2 GT ISZERO PUSH2 0xA0 JUMPI PUSH2 0x9F PUSH2 0x63 JUMP JUMPDEST JUMPDEST PUSH1 0x20 DUP4 ADD SWAP2 POP DUP4 PUSH1 0x20 DUP3 MUL DUP4 ADD GT ISZERO PUSH2 0xBC JUMPI PUSH2 0xBB PUSH2 0x68 JUMP JUMPDEST JUMPDEST SWAP3 POP SWAP3 SWAP1 POP JUMP JUMPDEST PUSH1 0x0 DUP1 DUP4 PUSH1 0x1F DUP5 ADD SLT PUSH2 0xD9 JUMPI PUSH2 0xD8 PUSH2 0x5E JUMP JUMPDEST JUMPDEST DUP3 CALLDATALOAD SWAP1 POP PUSH8 0xFFFFFFFFFFFFFFFF DUP2 GT ISZERO PUSH2 0xF6 JUMPI PUSH2 0xF5 PUSH2 0x63 JUMP JUMPDEST JUMPDEST PUSH1 0x20 DUP4 ADD SWAP2 POP DUP4 PUSH1 0x1 DUP3 MUL DUP4 ADD GT ISZERO PUSH2 0x112 JUMPI PUSH2 0x111 PUSH2 0x68 JUMP JUMPDEST JUMPDEST SWAP3 POP SWAP3 SWAP1 POP JUMP JUMPDEST PUSH1 0x0 DUP1 PUSH1 0x0 DUP1 PUSH1 0x0 DUP1 PUSH1 0x60 DUP8 DUP10 SUB SLT ISZERO PUSH2 0x136 JUMPI PUSH2 0x135 PUSH2 0x54 JUMP JUMPDEST JUMPDEST PUSH1 0x0 DUP8 ADD CALLDATALOAD PUSH8 0xFFFFFFFFFFFFFFFF DUP2 GT ISZERO PUSH2 0x154 JUMPI PUSH2 0x153 PUSH2 0x59 JUMP JUMPDEST JUMPDEST PUSH2 0x160 DUP10 DUP3 DUP11 ADD PUSH2 0x6D JUMP JUMPDEST SWAP7 POP SWAP7 POP POP PUSH1 0x20 DUP8 ADD CALLDATALOAD PUSH8 0xFFFFFFFFFFFFFFFF DUP2 GT ISZERO PUSH2 0x183 JUMPI PUSH2 0x182 PUSH2 0x59 JUMP JUMPDEST JUMPDEST PUSH2 0x18F DUP10 DUP3 DUP11 ADD PUSH2 0xC3 JUMP JUMPDEST SWAP5 POP SWAP5 POP POP PUSH1 0x40 DUP8 ADD CALLDATALOAD PUSH8 0xFFFFFFFFFFFFFFFF DUP2 GT ISZERO PUSH2 0x1B2 JUMPI PUSH2 0x1B1 PUSH2 0x59 JUMP JUMPDEST JUMPDEST PUSH2 0x1BE DUP10 DUP3 DUP11 ADD PUSH2 0xC3 JUMP JUMPDEST SWAP3 POP SWAP3 POP POP SWAP3 SWAP6 POP SWAP3 SWAP6 POP SWAP3 SWAP6 JUMP INVALID LOG2 PUSH5 0x6970667358 0x22 SLT KECCAK256 PUSH11 0x2D291180D4C873648304EB 0x2B 0xE0 SIGNEXTEND 0xD5 EQ 0xB4 0xB4 0xF8 0xB1 0xC1 0xBA ADDMOD 0xDA STATICCALL 0xD5 0xE5 0xE0 BLOBHASH 0x2C 0x27 PUSH5 0x736F6C6343 STOP ADDMOD XOR STOP CALLER "},"methodIdentifiers":{"checkSignatures(bytes32[],bytes,bytes)":"d69c71e6"}}}}}