{
  "_format": "hh-sol-artifact-1",
  "contractName": "PrivScore",
  "sourceName": "contracts/PrivScore.sol",
  "abi": [
    {
      "inputs": [
        {
          "internalType": "address",
          "name": "initialOwner",
          "type": "address"
        },
        {
          "internalType": "address",
          "name": "fheVerifierAddr",
          "type": "address"
        }
      ],
      "stateMutability": "nonpayable",
      "type": "constructor"
    },
    {
      "anonymous": false,
      "inputs": [
        {
          "indexed": true,
          "internalType": "address",
          "name": "user",
          "type": "address"
        },
        {
          "indexed": true,
          "internalType": "uint256",
          "name": "modelId",
          "type": "uint256"
        },
        {
          "indexed": false,
          "internalType": "bytes",
          "name": "encPayload",
          "type": "bytes"
        }
      ],
      "name": "MetricsSubmitted",
      "type": "event"
    },
    {
      "anonymous": false,
      "inputs": [
        {
          "indexed": true,
          "internalType": "address",
          "name": "previousOwner",
          "type": "address"
        },
        {
          "indexed": true,
          "internalType": "address",
          "name": "newOwner",
          "type": "address"
        }
      ],
      "name": "OwnershipTransferred",
      "type": "event"
    },
    {
      "anonymous": false,
      "inputs": [
        {
          "indexed": true,
          "internalType": "address",
          "name": "user",
          "type": "address"
        },
        {
          "indexed": true,
          "internalType": "uint256",
          "name": "modelId",
          "type": "uint256"
        },
        {
          "indexed": false,
          "internalType": "uint256",
          "name": "score",
          "type": "uint256"
        },
        {
          "indexed": false,
          "internalType": "bytes",
          "name": "proof",
          "type": "bytes"
        }
      ],
      "name": "ScorePublished",
      "type": "event"
    },
    {
      "inputs": [
        {
          "internalType": "address",
          "name": "",
          "type": "address"
        },
        {
          "internalType": "uint256",
          "name": "",
          "type": "uint256"
        }
      ],
      "name": "encryptedPayload",
      "outputs": [
        {
          "internalType": "bytes",
          "name": "",
          "type": "bytes"
        }
      ],
      "stateMutability": "view",
      "type": "function"
    },
    {
      "inputs": [],
      "name": "fheVerifier",
      "outputs": [
        {
          "internalType": "contract IFHE",
          "name": "",
          "type": "address"
        }
      ],
      "stateMutability": "view",
      "type": "function"
    },
    {
      "inputs": [
        {
          "internalType": "address",
          "name": "user",
          "type": "address"
        },
        {
          "internalType": "uint256",
          "name": "modelId",
          "type": "uint256"
        }
      ],
      "name": "getEncryptedPayload",
      "outputs": [
        {
          "internalType": "bytes",
          "name": "",
          "type": "bytes"
        }
      ],
      "stateMutability": "view",
      "type": "function"
    },
    {
      "inputs": [],
      "name": "owner",
      "outputs": [
        {
          "internalType": "address",
          "name": "",
          "type": "address"
        }
      ],
      "stateMutability": "view",
      "type": "function"
    },
    {
      "inputs": [
        {
          "internalType": "address",
          "name": "addr",
          "type": "address"
        }
      ],
      "name": "setFHEVerifier",
      "outputs": [],
      "stateMutability": "nonpayable",
      "type": "function"
    },
    {
      "inputs": [
        {
          "internalType": "bool",
          "name": "v",
          "type": "bool"
        }
      ],
      "name": "setTestingMode",
      "outputs": [],
      "stateMutability": "nonpayable",
      "type": "function"
    },
    {
      "inputs": [
        {
          "internalType": "address",
          "name": "user",
          "type": "address"
        },
        {
          "internalType": "uint256",
          "name": "modelId",
          "type": "uint256"
        },
        {
          "internalType": "bytes32[]",
          "name": "handles",
          "type": "bytes32[]"
        },
        {
          "internalType": "uint256",
          "name": "score",
          "type": "uint256"
        },
        {
          "internalType": "bytes",
          "name": "decryptionProof",
          "type": "bytes"
        }
      ],
      "name": "submitDecryptedScore",
      "outputs": [],
      "stateMutability": "nonpayable",
      "type": "function"
    },
    {
      "inputs": [
        {
          "internalType": "address",
          "name": "user",
          "type": "address"
        },
        {
          "internalType": "uint256",
          "name": "modelId",
          "type": "uint256"
        },
        {
          "internalType": "bytes",
          "name": "encPayload",
          "type": "bytes"
        }
      ],
      "name": "submitEncryptedMetrics",
      "outputs": [],
      "stateMutability": "nonpayable",
      "type": "function"
    },
    {
      "inputs": [],
      "name": "testingMode",
      "outputs": [
        {
          "internalType": "bool",
          "name": "",
          "type": "bool"
        }
      ],
      "stateMutability": "view",
      "type": "function"
    },
    {
      "inputs": [
        {
          "internalType": "address",
          "name": "newOwner",
          "type": "address"
        }
      ],
      "name": "transferOwnership",
      "outputs": [],
      "stateMutability": "nonpayable",
      "type": "function"
    }
  ],
  "bytecode": "0x60806040523480156200001157600080fd5b506040516200158d3803806200158d8339818101604052810190620000379190620001a1565b81806000806101000a81548173ffffffffffffffffffffffffffffffffffffffff021916908373ffffffffffffffffffffffffffffffffffffffff1602179055508073ffffffffffffffffffffffffffffffffffffffff16600073ffffffffffffffffffffffffffffffffffffffff167f8be0079c531659141344cd1fd0a4f28419497f9722a3daafe3b4186f6b6457e060405160405180910390a35060008060146101000a81548160ff02191690831515021790555080600260006101000a81548173ffffffffffffffffffffffffffffffffffffffff021916908373ffffffffffffffffffffffffffffffffffffffff1602179055505050620001e8565b600080fd5b600073ffffffffffffffffffffffffffffffffffffffff82169050919050565b600062000169826200013c565b9050919050565b6200017b816200015c565b81146200018757600080fd5b50565b6000815190506200019b8162000170565b92915050565b60008060408385031215620001bb57620001ba62000137565b5b6000620001cb858286016200018a565b9250506020620001de858286016200018a565b9150509250929050565b61139580620001f86000396000f3fe608060405234801561001057600080fd5b506004361061009e5760003560e01c8063a2cc638011610066578063a2cc638014610159578063c8f35b5d14610177578063d467800614610195578063f2fde38b146101b1578063f9ec9480146101cd5761009e565b806302e230f6146100a357806355dc2986146100bf578063596d7a68146100ef5780637e9abf4b1461010b5780638da5cb5b1461013b575b600080fd5b6100bd60048036038101906100b891906109ea565b6101e9565b005b6100d960048036038101906100d49190610a5e565b6102a0565b6040516100e69190610b2e565b60405180910390f35b61010960048036038101906101049190610b88565b610383565b005b61012560048036038101906101209190610a5e565b61042e565b6040516101329190610b2e565b60405180910390f35b6101436104db565b6040516101509190610bc4565b60405180910390f35b6101616104ff565b60405161016e9190610c3e565b60405180910390f35b61017f610525565b60405161018c9190610c68565b60405180910390f35b6101af60048036038101906101aa9190610c83565b610538565b005b6101cb60048036038101906101c69190610c83565b61060a565b005b6101e760048036038101906101e29190610d06565b6107c4565b005b8181600160008773ffffffffffffffffffffffffffffffffffffffff1673ffffffffffffffffffffffffffffffffffffffff16815260200190815260200160002060008681526020019081526020016000209182610248929190610ffe565b50828473ffffffffffffffffffffffffffffffffffffffff167f7ca543f3942733336bac087ac91d949066b5407ceed454bbcd72d7968597da60848460405161029292919061110a565b60405180910390a350505050565b6060600160008473ffffffffffffffffffffffffffffffffffffffff1673ffffffffffffffffffffffffffffffffffffffff168152602001908152602001600020600083815260200190815260200160002080546102fd90610e2b565b80601f016020809104026020016040519081016040528092919081815260200182805461032990610e2b565b80156103765780601f1061034b57610100808354040283529160200191610376565b820191906000526020600020905b81548152906001019060200180831161035957829003601f168201915b5050505050905092915050565b60008054906101000a900473ffffffffffffffffffffffffffffffffffffffff1673ffffffffffffffffffffffffffffffffffffffff163373ffffffffffffffffffffffffffffffffffffffff1614610411576040517f08c379a00000000000000000000000000000000000000000000000000000000081526004016104089061118b565b60405180910390fd5b80600060146101000a81548160ff02191690831515021790555050565b600160205281600052604060002060205280600052604060002060009150915050805461045a90610e2b565b80601f016020809104026020016040519081016040528092919081815260200182805461048690610e2b565b80156104d35780601f106104a8576101008083540402835291602001916104d3565b820191906000526020600020905b8154815290600101906020018083116104b657829003601f168201915b505050505081565b60008054906101000a900473ffffffffffffffffffffffffffffffffffffffff1681565b600260009054906101000a900473ffffffffffffffffffffffffffffffffffffffff1681565b600060149054906101000a900460ff1681565b60008054906101000a900473ffffffffffffffffffffffffffffffffffffffff1673ffffffffffffffffffffffffffffffffffffffff163373ffffffffffffffffffffffffffffffffffffffff16146105c6576040517f08c379a00000000000000000000000000000000000000000000000000000000081526004016105bd9061118b565b60405180910390fd5b80600260006101000a81548173ffffffffffffffffffffffffffffffffffffffff021916908373ffffffffffffffffffffffffffffffffffffffff16021790555050565b60008054906101000a900473ffffffffffffffffffffffffffffffffffffffff1673ffffffffffffffffffffffffffffffffffffffff163373ffffffffffffffffffffffffffffffffffffffff1614610698576040517f08c379a000000000000000000000000000000000000000000000000000000000815260040161068f9061118b565b60405180910390fd5b600073ffffffffffffffffffffffffffffffffffffffff168173ffffffffffffffffffffffffffffffffffffffff1603610707576040517f08c379a00000000000000000000000000000000000000000000000000000000081526004016106fe906111f7565b60405180910390fd5b8073ffffffffffffffffffffffffffffffffffffffff1660008054906101000a900473ffffffffffffffffffffffffffffffffffffffff1673ffffffffffffffffffffffffffffffffffffffff167f8be0079c531659141344cd1fd0a4f28419497f9722a3daafe3b4186f6b6457e060405160405180910390a3806000806101000a81548173ffffffffffffffffffffffffffffffffffffffff021916908373ffffffffffffffffffffffffffffffffffffffff16021790555050565b600060149054906101000a900460ff1661088b57600260009054906101000a900473ffffffffffffffffffffffffffffffffffffffff1673ffffffffffffffffffffffffffffffffffffffff1663d69c71e68686866040516020016108299190611238565b60405160208183030381529060405286866040518663ffffffff1660e01b815260040161085a9594939291906112ce565b60006040518083038186803b15801561087257600080fd5b505afa158015610886573d6000803e3d6000fd5b505050505b858773ffffffffffffffffffffffffffffffffffffffff167f10e471c9bb893185796e047ca6bdaf5a511e9adac900f22e12cd3cb26aa51c538585856040516108d69392919061132d565b60405180910390a350505050505050565b600080fd5b600080fd5b600073ffffffffffffffffffffffffffffffffffffffff82169050919050565b600061091c826108f1565b9050919050565b61092c81610911565b811461093757600080fd5b50565b60008135905061094981610923565b92915050565b6000819050919050565b6109628161094f565b811461096d57600080fd5b50565b60008135905061097f81610959565b92915050565b600080fd5b600080fd5b600080fd5b60008083601f8401126109aa576109a9610985565b5b8235905067ffffffffffffffff8111156109c7576109c661098a565b5b6020830191508360018202830111156109e3576109e261098f565b5b9250929050565b60008060008060608587031215610a0457610a036108e7565b5b6000610a128782880161093a565b9450506020610a2387828801610970565b935050604085013567ffffffffffffffff811115610a4457610a436108ec565b5b610a5087828801610994565b925092505092959194509250565b60008060408385031215610a7557610a746108e7565b5b6000610a838582860161093a565b9250506020610a9485828601610970565b9150509250929050565b600081519050919050565b600082825260208201905092915050565b60005b83811015610ad8578082015181840152602081019050610abd565b60008484015250505050565b6000601f19601f8301169050919050565b6000610b0082610a9e565b610b0a8185610aa9565b9350610b1a818560208601610aba565b610b2381610ae4565b840191505092915050565b60006020820190508181036000830152610b488184610af5565b905092915050565b60008115159050919050565b610b6581610b50565b8114610b7057600080fd5b50565b600081359050610b8281610b5c565b92915050565b600060208284031215610b9e57610b9d6108e7565b5b6000610bac84828501610b73565b91505092915050565b610bbe81610911565b82525050565b6000602082019050610bd96000830184610bb5565b92915050565b6000819050919050565b6000610c04610bff610bfa846108f1565b610bdf565b6108f1565b9050919050565b6000610c1682610be9565b9050919050565b6000610c2882610c0b565b9050919050565b610c3881610c1d565b82525050565b6000602082019050610c536000830184610c2f565b92915050565b610c6281610b50565b82525050565b6000602082019050610c7d6000830184610c59565b92915050565b600060208284031215610c9957610c986108e7565b5b6000610ca78482850161093a565b91505092915050565b60008083601f840112610cc657610cc5610985565b5b8235905067ffffffffffffffff811115610ce357610ce261098a565b5b602083019150836020820283011115610cff57610cfe61098f565b5b9250929050565b600080600080600080600060a0888a031215610d2557610d246108e7565b5b6000610d338a828b0161093a565b9750506020610d448a828b01610970565b965050604088013567ffffffffffffffff811115610d6557610d646108ec565b5b610d718a828b01610cb0565b95509550506060610d848a828b01610970565b935050608088013567ffffffffffffffff811115610da557610da46108ec565b5b610db18a828b01610994565b925092505092959891949750929550565b600082905092915050565b7f4e487b7100000000000000000000000000000000000000000000000000000000600052604160045260246000fd5b7f4e487b7100000000000000000000000000000000000000000000000000000000600052602260045260246000fd5b60006002820490506001821680610e4357607f821691505b602082108103610e5657610e55610dfc565b5b50919050565b60008190508160005260206000209050919050565b60006020601f8301049050919050565b600082821b905092915050565b600060088302610ebe7fffffffffffffffffffffffffffffffffffffffffffffffffffffffffffffffff82610e81565b610ec88683610e81565b95508019841693508086168417925050509392505050565b6000610efb610ef6610ef18461094f565b610bdf565b61094f565b9050919050565b6000819050919050565b610f1583610ee0565b610f29610f2182610f02565b848454610e8e565b825550505050565b600090565b610f3e610f31565b610f49818484610f0c565b505050565b5b81811015610f6d57610f62600082610f36565b600181019050610f4f565b5050565b601f821115610fb257610f8381610e5c565b610f8c84610e71565b81016020851015610f9b578190505b610faf610fa785610e71565b830182610f4e565b50505b505050565b600082821c905092915050565b6000610fd560001984600802610fb7565b1980831691505092915050565b6000610fee8383610fc4565b9150826002028217905092915050565b6110088383610dc2565b67ffffffffffffffff81111561102157611020610dcd565b5b61102b8254610e2b565b611036828285610f71565b6000601f8311600181146110655760008415611053578287013590505b61105d8582610fe2565b8655506110c5565b601f19841661107386610e5c565b60005b8281101561109b57848901358255600182019150602085019450602081019050611076565b868310156110b857848901356110b4601f891682610fc4565b8355505b6001600288020188555050505b50505050505050565b82818337600083830152505050565b60006110e98385610aa9565b93506110f68385846110ce565b6110ff83610ae4565b840190509392505050565b600060208201905081810360008301526111258184866110dd565b90509392505050565b600082825260208201905092915050565b7f6f6e6c79206f776e657200000000000000000000000000000000000000000000600082015250565b6000611175600a8361112e565b91506111808261113f565b602082019050919050565b600060208201905081810360008301526111a481611168565b9050919050565b7f7a65726f206f776e657200000000000000000000000000000000000000000000600082015250565b60006111e1600a8361112e565b91506111ec826111ab565b602082019050919050565b60006020820190508181036000830152611210816111d4565b9050919050565b6000819050919050565b61123261122d8261094f565b611217565b82525050565b60006112448284611221565b60208201915081905092915050565b600082825260208201905092915050565b600080fd5b82818337505050565b600061127e8385611253565b93507f07ffffffffffffffffffffffffffffffffffffffffffffffffffffffffffffff8311156112b1576112b0611264565b5b6020830292506112c2838584611269565b82840190509392505050565b600060608201905081810360008301526112e9818789611272565b905081810360208301526112fd8186610af5565b905081810360408301526113128184866110dd565b90509695505050505050565b6113278161094f565b82525050565b6000604082019050611342600083018661131e565b81810360208301526113558184866110dd565b905094935050505056fea264697066735822122014946461669c6cb49bcf4053f9915c6768a8beea904cf686ff296dda2b8c1d7d64736f6c63430008180033",
  "linkReferences": {},
  "deployedLinkReferences": {}
}