{
  "_format": "hh-sol-artifact-1",
  "contractName": "MockFHE",
  "sourceName": "contracts/MockFHE.sol",
  "abi": [
    {
      "inputs": [
        {
          "internalType": "bytes32[]",
          "name": "",
          "type": "bytes32[]"
        },
        {
          "internalType": "bytes",
          "name": "",
          "type": "bytes"
        },
        {
          "internalType": "bytes",
          "name": "",
          "type": "bytes"
        }
      ],
      "name": "checkSignatures",
      "outputs": [],
      "stateMutability": "pure",
      "type": "function"
    }
  ],
  "bytecode": "0x608060405234801561001057600080fd5b50610203806100206000396000f3fe608060405234801561001057600080fd5b506004361061002b5760003560e01c8063d69c71e614610030575b600080fd5b61004a60048036038101906100459190610119565b61004c565b005b505050505050565b600080fd5b600080fd5b600080fd5b600080fd5b600080fd5b60008083601f8401126100835761008261005e565b5b8235905067ffffffffffffffff8111156100a05761009f610063565b5b6020830191508360208202830111156100bc576100bb610068565b5b9250929050565b60008083601f8401126100d9576100d861005e565b5b8235905067ffffffffffffffff8111156100f6576100f5610063565b5b60208301915083600182028301111561011257610111610068565b5b9250929050565b6000806000806000806060878903121561013657610135610054565b5b600087013567ffffffffffffffff81111561015457610153610059565b5b61016089828a0161006d565b9650965050602087013567ffffffffffffffff81111561018357610182610059565b5b61018f89828a016100c3565b9450945050604087013567ffffffffffffffff8111156101b2576101b1610059565b5b6101be89828a016100c3565b9250925050929550929550929556fea26469706673582212206a2d291180d4c873648304eb2be00bd514b4b4f8b1c1ba08dafad5e5e0492c2764736f6c63430008180033",
  "linkReferences": {},
  "deployedLinkReferences": {}
}